:10000000E8C1000003C2000001C200000C947B1C88
:10001000FDC10000FBC10000F9C10000F7C10000F4
:10002000F5C10000F3C100000C944F210C941B2279
:100030000C942C1BEBC10000E9C10000E7C10000DB
:10004000E5C10000E3C10000E1C10000DFC1000024
:10005000DDC100000C94A31BD9C10000D7C1000072
:10006000D5C10000D3C10000D1C10000CFC1000044
:10007000CDC10000CBC10000C9C10000C7C1000054
:10008000C5C10000C3C10000C1C10000BFC1000064
:10009000BDC10000BBC10000B9C10000B7C1000074
:1000A000B5C10000B3C10000B1C1000014001A00C6
:1000B00008001500170004221621072409280A4207
:1000C0001D001B0006001941050028282C420000D5
:1000D000000000001C0018000C00120013000B426E
:1000E0000D380E340F313332110010413600370015
:1000F000380028422C380000000000002B002F029E
:1001000030022D022E022900260227022D002E0089
:1001100039002F003000310031020000635200002E
:100120000000000035023500340034024C0050005D
:10013000510052004F002A000000000000000000A3
:100140000000000000000000000000001E001F0072
:100150002000210022003A003B003C003D003E0010
:10016000000000000000000000000000000000008F
:1001700000000000230024002500260027003F0087
:100180004000410042004300000000000000440025
:1001900045000000000000000000000014001A00EC
:1001A00009001300050004221521162417280A004F
:1001B0001D001B00060007001900282863520000DC
:1001C000000000000D000F0018001C00330010009C
:1001D000113808340C3112320E000B003600370093
:1001E000380000002C380000000000000000000073
:1001F000000000002A2B2800000000000000000082
:100200000000000000000029000000002C1E342027
:10021000212224342627252E362D3738271E1F204D
:100220002122232425263333362E37381F04050692
:100230000708090A0B0C0D0E0F10111213141516D6
:100240001718191A1B1C1D2F3130232D35040506D4
:100250000708090A0B0C0D0E0F10111213141516B6
:100260001718191A1B1C1D2F3130354C00000000C7
:10027000000000000000000000000000000000007E
:10028000000000000000000000000000000000006E
:100290007E0F00D4FFFFFFC7000000781A0346005E
:1002A000650072007200690073002000730077001F
:1002B0006500650070000000080344005000420023
:1002C00000000403090409023B00020100A0FA092E
:1002D0000400000103010100092111010001224471
:1002E0000007058103080001090401000103000063
:1002F00000092111010001227B0007058203200073
:10030000011201000200000008ABC23939010001EE
:1003100002000105010902A10185020901A10005F0
:1003200009190129081500250195087501810205A3
:1003300001093009311581257F950275088106096B
:10034000381581257F950175088106050C0A38024C
:100350001581257F950175088106C0C005010980BA
:10036000A101850319012AB700150126B7009501DF
:1003700075108100C0050C0901A101850419012A2D
:10038000A002150126A002950175108100C005018B
:100390000906A101050719E029E7150025019508BF
:1003A000750181029501750881010507190029FF72
:1003B000150026FF0095067508810005081901291A
:1003C00005150025019505750191029501750391AB
:1003D00001C011241FBECFEFDAE0DEBFCDBF11E0B8
:1003E000A0E0B1E0E2EAF9E402C005900D92A63C7B
:1003F000B107D9F722E0A6ECB1E001C01D92A63CFE
:10040000B207E1F70E94F2120C947524F9CD843002
:10041000C8F46830B8F44530A8F450E095E0699F1E
:10042000400D511D112498E2899F400D511D11244A
:10043000FA01EE0FFF1FE455FF4F85919591282F8C
:10044000822F089521E090E0FBCFE1CF08959C0139
:1004500091509F31B0F4832F817034FF0AC0829590
:10046000807F31FD806232FD806433FF0BC0806885
:10047000089531FD826032FD846033FF03C08860DF
:10048000089580E00895CF93DF93EB01E0DFFE0154
:100490000995DF91CF910895CF93DF93EC01805EB2
:1004A0009109089720F061E776E0209711F462E760
:1004B00074E0CE01E8DF8C2F87D1DF91CF910895D2
:1004C000CF93DF93EC01C3D1CE01805E91090897F1
:1004D00020F066E776E0209711F467E774E0CE013C
:1004E000D2DFDF91CF9108950F931F93CF93DF93C6
:1004F0008C01EB01D1DF209739F4C801E1DFDF91F6
:10050000CF911F910F9108958FE99FE00197F1F727
:1005100000C000002197EFCF60E570E089339105BE
:1005200011F060E070E0E0CF81E0089581E008958F
:10053000FBCF089581E0089581E00895FDCF0895EF
:1005400008950895FDCF089508950895A6E0B0E0B8
:10055000ECEAF2E00C94E82349835A839E833091BD
:10056000CD0189819A81311117C03E81311589F001
:10057000211579F008D5182F682F89819A81E2D446
:1005800069817A81812F0E94A20D2696E3E00C9466
:100590000424E9D4182FF4CFF6D469817A81F3CFFB
:1005A000FC01262F40815181628173818481958174
:1005B000CDCFCF93DF93EC0161E0F2DFBE01B6DF78
:1005C000811529F061E0CE01EBDFBE01B1DFDF91E3
:1005D000CF9108950F931F93CF93DF93EC0160E0C9
:1005E000DFDF8C01BE01ADDFBE01C801ABDFDF91F3
:1005F000CF911F910F9108950F931F93CF93DF9386
:10060000EC0161E0CDDF8C01BE0194DF811106C0F9
:1006100080E0DF91CF911F910F910895BE01C80135
:100620008DDF8115A9F3BE01C8010E941513811544
:1006300079F3BE01C8010E940619811549F3BE0174
:10064000C8010E94DB14811519F3BE01C8010E9484
:10065000B2148115E9F2BE01C8010E94EA0E8115AB
:10066000B9F2BE01C8010E94FC0E811589F2BE01DB
:10067000C8010E94160FCDCF21E030E002C0220F4A
:10068000331F8A95E2F7C90198C3CF93C82F81E041
:1006900090E00C2E02C0880F991F0A94E2F70E9486
:1006A000BF0B8C2FE9DFCF91089581E0089581E0A1
:1006B0000895FBCF0895CF93C82F2ED38C2FF7DF4B
:1006C0008C2FF7DFCF91089581E0F5DF0C94C71BE5
:1006D00080E0F1DF0C94D81B37DF0E94C01A17C0EE
:1006E00018D033DF0C94C41A81E008950895CF9395
:1006F000DF93D82FF9DFC82F811511F08D2FF6DF8A
:100700008C2FDF91CF9108950895F1CF089580E067
:10071000FCCF0E944D19F9CFCF930E944D19C82FDD
:100720008091C8018C1771F0C093C8010E94971B7B
:100730006093C9017093CA018093CB019093CC015F
:100740008C2FE3DFCF910895ADE0B0E0EAEAF3E06B
:100750000C94E923488759876A877B878C879D8714
:10076000911122D71F8286E0FE0138969E012F5FED
:100770003F4FD90101900D928A95E1F78D8181114A
:100780000CC029813A814B815C816D817E818F8192
:1007900053D62D96E2E00C940524CE01019609DF94
:1007A0008111EFCFF6CFFC012481213019F4808133
:1007B00091811CC40895611521F00E9437160C9494
:1007C000EC160E947716FBCFCF93C82F811581F0CE
:1007D0008450813A78F48C2F0E94E619811521F01B
:1007E0008C2F0E94281A49D78C2F0E94221A45D795
:1007F000CF9108958C2F805E883048F481E0C1FD50
:1008000084E0C0FD880FC2FD8295ACD6F0CF8C2F5E
:10081000855A833030F48C2F8452990B0E948419AE
:10082000E7CFEC2FE85AEB3150F4F0E0EE0FFF1F6A
:10083000E85AFE4F808191810E94AB19D9CF8C2F4D
:100840008D5C8331A8F661E08C2FB5DFD1CF8115A7
:1008500059F1982F9450913A18F40E94281A0DC714
:10086000982F905E983050F4982F81E091FD84E0AD
:1008700090FD880F92FD82957BD6F1CF982F955AE7
:10088000933020F480E090E00C948419982F985ACB
:100890009B3120F480E090E00C94AB19982F9D5C84
:1008A000933110F460E087CF08951F93CF93DF93C7
:1008B000182FEB0189DF209731F4812FC8DFDF91FA
:1008C000CF911F9108958FE99FE00197F1F700C044
:1008D00000002197F0CF60E570E0893311F060E00F
:1008E00070E0E3CF811511F03DD6C7C6089581159C
:1008F00011F03ED6C2C60895A0E0B0E0E2E8F4E010
:100900000C94E3236C01D62FC72FFC0115810681BF
:1009100002950F701CD6E82E8115E9F0E12E111515
:10092000D1F08C2F807F803461F08D2F805E8830F5
:10093000E0F08C2F807E803221F4D230B0F00115AF
:10094000A1F080919B0282FF10C082E0B2D6FFD559
:1009500091E08927E82EEC2FE295EF70C03C78F506
:10096000F0E0E958FB4D0C94D323E12CF4CF0C2F8D
:100970000F70C03110F00295007F111581F0011544
:1009800049F08D2F805E883010F0D11105C0802F86
:10099000E9D573D68D2F40C0802FF8D5FACF8D2F93
:1009A00056DF011561F08D2F805E883010F0D11177
:1009B00003C0802FDDD502C0802FEED55ED6E114B6
:1009C00009F4B3C0C0D580FDB0C0F6011582B5D51D
:1009D00024D2C60168D1B1D52ED2A7C08C2F8F707A
:1009E000F82EC07FC03219F0F29480EFF822D13097
:1009F00038F079F1111509F438C00115C9F0CACFE2
:100A000080919B0282FD10C0111541F0F11419F084
:100A10008F2DA8D532D680E0D7DED1CF80E017DF8A
:100A2000F11469F28F2DC6CF111551F0013018F471
:100A30008F2D58DFC4CF09F0C2CF8F2DC9D5BFCFBE
:100A40000111BDCF8F2D53DF8F2DCDD58F2DB2D579
:100A5000B6CF111521F0063008F0B1CFE9CF05303F
:100A600008F0ADCF8F2D43DFAACF0115D9F3D933CD
:100A700049F48FEF97EE23E0815090402040E1F75A
:100A800000C000008D2FE3DE9ACF8C2F86958695CF
:100A90008370813060F009F092CF8D2F9C2F93707E
:100AA000111102C080E090E00E94AB1988CF8D2F19
:100AB0009C2F9370111102C080E090E00E94841975
:100AC0007ECF612F8D2F77DE7ACF8C2F8370C1F58B
:100AD000111128C04D2F429546954770440F440F81
:100AE0002D2F2F7030E0042E02C0220F331F0A94E6
:100AF000E2F780E090E0D4FF09C08FE090E002C010
:100B0000880F991F4A95E2F780959095C695C695EE
:100B1000C370822B932BC23079F0C33079F0C1308F
:100B200049F054D10E944D19F0DDCDB7DEB7E8E0B1
:100B30000C94FF2344D1F6CF50D1F4CF3ED1F2CF65
:100B4000111559F1C0FFEECF4D2F429546954770D4
:100B5000440F440F2D2F2F7030E0042E02C0220FBF
:100B6000331F0A94E2F780E090E0D4FF09C08FE0E1
:100B700090E002C0880F991F4A95E2F78095909502
:100B8000C695C695C370822B932BC23061F0C330DB
:100B900061F0C13031F074D1C5CF823008F4C2CFDA
:100BA000D3CF67D1BFCF73D1BDCF24D1BBCFCF704F
:100BB000111529F08C2F31D18D2F94DEB3CF8D2FCD
:100BC00096DE8C2F38D1AECFD23F31F168F4D03FD2
:100BD000C1F0D13F89F0111509F43EC0011509F4A7
:100BE00038C08D2FF1DD9ECFD33FE1F0D43F99F790
:100BF00080919B0282FD1EC08C2F8F71111511F305
:100C00000FC0111539F0053008F08CCF8C2F8F7183
:100C100022D188CF0630F8CF8C2F8F711111D2CF0F
:100C2000FCD080CF111521F08C2F8F71EDD07ACFB1
:100C3000E8D078CF111529F063E08C2F8F7122D581
:100C400071CF81E036D5023008F46CCF82E031D527
:100C500069CF8C2F8F71E4CF011571F0D93349F42E
:100C60008FEF97EE23E0815090402040E1F700C0E5
:100C700000008D2FECDD56CF8C2F8F71A3CF0F93FB
:100C80001F93CF93DF93EC01688179818D81B7D178
:100C90008C0104D191D0B801CE012EDEDF91CF912D
:100CA0001F910F910895CF93DF93EC018C818115F3
:100CB00081F0CE01A1DC81110FC049D4811549F02A
:100CC0008D81811531F080919B0282FF02C082E00C
:100CD000F0D4DF91CF910895CE01D1DFCE017ADC3F
:100CE000F8CF811511F052D4C8C40895811511F0C0
:100CF00053D4C3C4089580E090E00E94841980E03A
:100D000090E00E94AB1950D4B8D40E9405170C94FF
:100D1000EC160E942E1AEFCF36D4FBCF282F9295D7
:100D20009F70963099F060F4925F9F70923030F42B
:100D3000203FB1F038F481E0283E38F080E008959B
:100D40009A5FF3CF81E0243FC9F7089591E0813F96
:100D500009F090E081E0283E08F080E0892B0895BA
:100D600081E00895FC012481211521F08081918189
:100D70003DD1D4CF80E00895A6E0B0E0E2ECF6E00B
:100D80000C94E9232696E2E00C940524A7E0B0E059
:100D9000ECECF6E00C94E9232796E2E00C940524B1
:100DA0000895FECF0895FDCF0895FADFFCDF80930C
:100DB000E4019093E50108950895F7CF08952091F7
:100DC000E4013091E501822B932BEFCF2091E401D8
:100DD0003091E50182239323E8CF2091E401309103
:100DE000E50182279327E1CFDBCF0895FDCF08955A
:100DF000D7CF0895FDDFFADF8093E2019093E301FE
:100E0000089580E090E0F6CF21E030E002C0220FAC
:100E1000331F8A95E2F7C901EDCF21E030E002C02F
:100E2000220F331F8A95E2F78091E2019091E3014E
:100E3000822B932BDFCF21E030E002C0220F331F43
:100E40008A95E2F7209530958091E2019091E30137
:100E500082239323CFCF21E030E002C0220F331F43
:100E60008A95E2F78091E2019091E301822793272E
:100E7000C1CF2091E2013091E301822B932BBACFB5
:100E80002091E2013091E30182239323B3CF20919B
:100E9000E2013091E30182279327ACCF0895CF93ED
:100EA000C1E061FDC4E060FDCC0F62FDC29593E03E
:100EB000769567959A95E1F7660F771F660F771F0E
:100EC000460F571FFA0140E050E090E06191DF01CA
:100ED0009C01042E02C0369527950A94E2F72695C8
:100EE000220B26272C2326272E934F5F5F4F44305B
:100EF000510561F7CF910895A82FA77023E096952B
:100F000087952A95E1F7880F991F880F991F680F19
:100F1000791FFB0140E050E080E0219130E00A2E93
:100F200002C0369527950A94E2F72170042E01C07D
:100F3000220F0A94EAF7822B4F5F5F4F443051052E
:100F400061F70895262F983068F4853058F4682F9B
:100F500070E085E0989F600D711D11244EEC51E00A
:100F6000822F9DCF0895292F983058F4853048F46A
:100F700090E06EEC71E035E0239F800D911D11240F
:100F8000BBCF80E00895CF92DF92FF920F931F9323
:100F9000CF93DF936C010091E2011091E301809106
:100FA000E4019091E501082B192BCFE0D0E081E01E
:100FB00090E00C2E02C0880F991F0A94E2F780235C
:100FC0009123892B61F4219790F7F12C8F2DDF91DC
:100FD000CF911F910F91FF90DF90CF900895FC2E3D
:100FE000B6018C2FBAD5019771F3F0CFCF93DF9371
:100FF000EC01C9DFBE01B1D5DF91CF9108951F93F8
:10100000CF93DF93EB019091CD01911531F0CB019E
:10101000EDDFDF91CF911F910895811551F0CB0144
:10102000B2DF182F682FCE018DDFBE01812F95D53D
:10103000F0CFCB0198DF182FF8CF0F931F930091BB
:10104000E6018091E701801303C01F910F9108957D
:1010500087E0089FF0011124E851FE4F2081318183
:101060004281538164817581868190DE0F5F1F4FBD
:101070000770E7CF20912002309121024091220297
:1010800050912302609124027091250280912602E2
:101090007DCE80912602803170F4809125028115E9
:1010A00051F0E091E6012091E70130912102409159
:1010B00020022E1301C00895BF0187E0E89FF001D0
:1010C0001124DF01A851BE4F14968C9114978115FD
:1010D00049F111968C911197831324C08C9184133C
:1010E00021C015968C91159781111CC012968D9177
:1010F0009D91A0912202B09123028A1B9B0B883CF8
:10110000910580F4809126028F7080618093260281
:10111000E251FE4F80818F708061808380E292E097
:10112000C2DD8BCF6F5F7F4FFB01E770C2CFE091D5
:10113000E6019091E701E91302C080E008959F0164
:1011400057E0E59FF0011124E851FE4F51815613FD
:1011500006C05081581303C05581541305C02F5F3A
:101160003F4FF901E770E7CF81E008958F929F929A
:10117000AF92BF92DF92EF92FF920F931F93CF93A4
:10118000DF93CDB7DEB72D970FB6F894DEBF0FBE55
:10119000CDBF8C0186E0F801DE01189601900D921A
:1011A0008A95E1F7F801F580848190E2892E92E03A
:1011B000992E90912402911117C0811509F4EFC066
:1011C000F11409F42EC1C801CDDD811509F429C13E
:1011D00087E0F801D40101900D928A95E1F7C401EE
:1011E000E2DA57DF47DFDBC0E080A280B380D09037
:1011F00025022091220230912302A501421B530BAC
:10120000D11409F4CFC0483C510508F09EC08115A7
:1012100009F4C5C09091210291808091260280310D
:1012200008F065C0991226C0909120029E1122C03C
:10123000F11057C08F708061809326021BDF80E21F
:1012400092E031DD80912602F8018683F12C8F2D0A
:101250002D960FB6F894DEBF0FBECDBFDF91CF91B4
:101260001F910F91FF90EF90DF90BF90AF909F90F4
:101270008F900895F11035C040E0692D8E2D57DF15
:1012800040E0692D8E2D53DFF82E8111DFCF888548
:101290009985ACDE292F22952F70903450F49F70E1
:1012A000223078F0911591F0F8019681903170F428
:1012B000CECF2A5F2F70223070F0C801F4DCFD2CF5
:1012C000C6CF911519F0811509F4C1CF805E883021
:1012D00008F4BDCFF2CF803F08F4B9CF815F8330EF
:1012E000F7CF80912602816080932602AFCF9912BA
:1012F00007C0909120029E1103C0F11409F473C03D
:10130000C80130DD811509F48CC0F11409F489C0DD
:1013100080912602803280F02091200230912102BB
:1013200029833A83AB82BC82909124029D831E82E2
:101330008F83CE010196B7DC87E0F801A0E2B2E02E
:1013400001900D928A95E1F74CCF90912602903151
:1013500088F4488559856A857B858C859D850CDD5B
:1013600080E292E0A0DCF40187E011928A95E9F72F
:1013700081DE6CCF811599F02091210281812813A3
:10138000BFCF809120028E11BBCFF110B9CF9683D1
:10139000C80189DCF40187E011928A95E9F7FF24FE
:1013A000F39455CF483C510508F03EC08115B9F380
:1013B000F114B9F1909121028181981329C0809193
:1013C00020028E1125C08091260280FD18C0803138
:1013D000B0F08683807F803F39F08681982F907FA0
:1013E000905F8F70892B8683C8015DDC87E0F801F0
:1013F000A0E2B2E001900D928A95E1F7F3CE87E08A
:10140000F801A0E2B2E001900D928A95E1F7C7CF12
:10141000C801A8DC811190CF809126028160809361
:101420002602C80140DCBBCF488559856A857B858B
:101430008C859D85A1DC97CFAEE0B0E0E2E2FAE0DA
:101440000C94E823288739874A875B876C877D87D8
:101450008E87CE0108968ADE6C85811599F061151C
:1014600039F0288539854A855B857D858E858EDCBA
:101470008091E6019091E70189133DC02E96E3E04B
:101480000C94042487E09E01285F3F4FF901275008
:101490003109D90101900D928A95E1F7611541F367
:1014A000A091E7018A2F90E08395877090E0AC01CE
:1014B0002091E6012417150691F097E09A9FD0013C
:1014C0001124A851BE4F9E012F5F3F4FF90101909B
:1014D0000D929A95E1F74093E701AFDDC9CF1CDC8F
:1014E0001092E7011092E601E0E2F2E087E011924B
:1014F0008A95E9F7BDCF17E0189FC00111248851E4
:101500009E4F34DE811509F4B9CFE091E6011E9FAC
:10151000F0011124E851FE4F208131814281538135
:1015200064817581868132DC8091E6019091E701CA
:10153000019687708093E6019BCF80912F0286955C
:1015400086958695089580912F02877008959091D1
:101550002F02977081E0911101C080E00895809181
:101560003B02089590913B02982B90933B02089583
:101570008095982F80913B02892380933B020895A8
:1015800080933B02089510923B02089590913A0295
:10159000982B90933A0208958095982F80913A0263
:1015A000892380933A02089510923A02089508958B
:1015B000FECF089590913002292F282329F080959D
:1015C000892380933002F4CF08950895FECF0895C3
:1015D00090913102292F2823281721F0982B9093DE
:1015E0003102F4CF089590913102292F282329F058
:1015F0008095892380933102E9CF0895809131024B
:10160000811521F01092310280E0E0CF08950F9310
:101610001F93CF93DF9380910001909101018C0182
:10162000C0913B0280913A02C82B80913102811512
:1016300029F0C82B0E94D2198111E0DFF801C08384
:10164000C0910001D091010148E050E067E272E0F2
:10165000CE010E942424892B59F088E0FE01A7E2E4
:10166000B2E001900D928A95E1F7CE010E946519D2
:10167000DF91CF911F910F910895C9CF08950895DB
:10168000FECF089590919B0292FF0EC0982F990F64
:10169000990F990F962B90932F02BFDB80912F0209
:1016A000869586958695ECCFB8CB10922F0280E078
:1016B000E7CF90912F028095892380932F02282FC6
:1016C000277059F4891749F090919B0292FF05C049
:1016D000869586958695AFDBE8CF089590919B021D
:1016E00092FB222720F9281749F080FB92F990936A
:1016F0009B028AE992E047D082E0DBCF0895809197
:101700009B02002482FF0394802DE8CF81E0E6CF86
:1017100080E0E4CF80E090E0BC0100C480E090E095
:10172000BC01F6D3F7CFA4E0B0E0E9E9FBE00C940C
:10173000E92396D3A1D31C82CE010496B4D381E0D1
:1017400090E08093E4011092E501B9D3198284E11D
:101750008A83CE010196C4D31B82CE010396D2D3D5
:10176000DDDF2496E2E00C940524DDCF08958AC3E2
:10177000089577C308958CC308959BC308959FC3AC
:101780000895A2C30895ACC30895B1C30895BAC320
:101790000895CAC30895A6E0B0E0E1EDFBE00C9423
:1017A000E7230E948B1B8C0180913C0290913D02AB
:1017B0008017910779F019821A820E948B1BBC0155
:1017C00049815A8180E090E00E94A40300933C028A
:1017D00010933D022696E4E00C940324DDD260933E
:1017E00042027093430280934402909345026093B7
:1017F0003E0270933F02809340029093410208950D
:1018000008950895FDCF08950895FEDFFBCF089554
:10181000FECF08950895FEDFFBCF81E0089588EEA6
:101820009EE0F1D6EEDFF1CF02C508950895089548
:101830000895FCDFFCDFFCCF9CDF811101C095DF48
:1018400086E492E098DF8AE992E09BDF0E9496149A
:1018500094DFB3DA8091E2019091E301C7CA0E945C
:10186000821B71D2E9D420D4E7DF0E944B190E9479
:10187000840323D70E949814E9D4CDCFD8D4811102
:101880000C944C190895A6E0B0E0E9E4FCE00C9457
:10189000E023C3DF81110AC07EDFF0DF0E9426173C
:1018A0000E948C032696EBE00C94FC2337D482E94B
:1018B000A82E82E0B82E750110E0F7010081812F7B
:1018C0003ED31F5F183009F445C09FEFE91AF90AAB
:1018D000081799F38091460281FD37D3A5DF982E32
:1018E00010E0812F2CD3F82EF50181915F01F816BD
:1018F00061F18F25D82E00E0EE24E3948D2D8E210A
:10190000F1F0CC24C3948F2D8E2109F4C12C9114B5
:1019100089F0602F812F0E94E61A81110BC0098384
:101920001A830E948B1BBC0149815A8181E09C2D46
:101930000E94A4034C2D602F812F0E94FA1A0F5F82
:10194000EE0C0530D9F6F501F2921F5F183049F61A
:1019500045DFA3CF0813BECF9FCF0F931F93CF9325
:10196000DF93FDD0EC01D23508F050C0D03508F03F
:10197000C8C0C03ED10530F5CD3CD10508F09DC0B2
:10198000C83AD10578F4C53AD10508F093C0C13002
:10199000D105B1F1CE010497813A910588F1C0E0FB
:1019A000D0E02EC0CE01885A91094B97C0F7C85A93
:1019B000D0E0CC0FDD1FC257DE4F0990D881C02D7B
:1019C000D4641EC0D034A8F4D03208F0ADC0C83EF4
:1019D000D105B0F0CE0191509F3108F78D2F62D123
:1019E000082F8C2F90E0BBD0D02FDF71C82FD92BC0
:1019F00007C08C2F90E0B3D0DF70C82FD92BD06AEE
:101A0000CE01DF91CF911F910F910895C03882E5EB
:101A1000D807B8F5C03682E5D80708F056C0C034FC
:101A200082E5D807C8F4C03282E5D80708F047C07D
:101A30008C2F8695869520E2829FC0011124C37069
:101A400021E030E002C0220F331FCA95E2F7E9011E
:101A5000C82BD92BDD68D4CF8C2F869586958770BF
:101A600020E2829FC0011124C37021E030E002C057
:101A7000220F331FCA95E2F7E901C82BD92BDC6886
:101A8000BFCFC03C82E5D80750F48C2F8F71C03A8D
:101A9000D24580F5982F84EF906AEC01B1CFCE014A
:101AA000805C9245809708F07ACFDC2FDF71C0EF21
:101AB000D06AA6CFA497D064A3CFD065A1CF8C2F36
:101AC0008F71D82FC1EFD06A9BCF8C2F86958695CA
:101AD000877020E2829FC0011124C37021E030E0B2
:101AE00002C0220F331FCA95E2F7E901C82BD92B98
:101AF000DA6886CFD7D0982F80E09F71EC01D06252
:101B00007FCF8C2F8F71CED053E0CC0FDD1F5A9535
:101B1000E1F7DF70282F84FF04C090E1899F9001D6
:101B20001124C22FD0696CCF8D2F8F71BBD0082F9D
:101B30008C2F90E014D0302F3F71282F392B30623A
:101B4000E9015ECF462F783028F4653018F4672F0E
:101B50000C94250280E090E00895F4DFFECE803EF4
:101B60009105D1F1C8F48133910509F481C048F49D
:101B70008932910509F471C08A32910509F47FC058
:101B8000089589339105E1F082389105C9F08533D4
:101B9000910509F45DC00895843E9105D1F148F4A2
:101BA000823E910531F1833E910541F181EE90E055
:101BB0000895863E9105C1F1873E9105F1F10895A2
:101BC00020919A02237009F064C020919B0223FFA8
:101BD00014C089E290E0089520919A0220FD45C04A
:101BE00030919B0230FF09C024FD24C083EE90E0B9
:101BF000089520919A0222FDF7CF089520919A022C
:101C000022FD44C030919B0230FD43C024FFF5CF3C
:101C100011C020919B0221FFF0CF80919A0284FD98
:101C200009C087EE90E0089520919A0223FFE5CF46
:101C300024FFF7CF80E090E0089520919A0223FDE1
:101C40002BC030919B0231FFE1CF84EE90E00895EC
:101C500020919A0225FFD1CFBCCF20919A0225FD79
:101C60001EC020919B0223FFC8CF89E390E0089516
:101C700020919A0226FFC1CF8AE290E00895209138
:101C80009A0226FFBACF81E390E0089582EE90E0B9
:101C9000089580EE90E0089586EE90E0089585E343
:101CA00090E0089590919A0292FF10C041E0282F91
:101CB0002471243009F040E031E0282F28712830C9
:101CC00009F030E0431711F02CE0822793FF10C099
:101CD00041E0282F2471243109F040E031E0282F21
:101CE0002871283109F030E0431711F02CE08227E9
:101CF00030919B0230FF10C051E0282F217121301C
:101D000009F050E041E0282F2871283009F040E028
:101D1000541711F029E0822731FF10C041E0282F2D
:101D20002171213109F040E031E0282F287128315C
:101D300009F030E0431711F029E0822794FF02C038
:101D400083FD877E089510929C0210929D0210924E
:101D50009E0210929F020895EF92FF920F931F939D
:101D60007B018C0164D2811112C00E94971B9701E4
:101D7000A801261B370B480B590BC901DA018093C8
:101D80009C0290939D02A0939E02B0939F021F918C
:101D90000F91FF90EF9008954AD2811541F00E9473
:101DA000971B462F572FBC01CB01BA0108950E9403
:101DB000971BDC01CB0140919C0250919D026091E8
:101DC0009E0270919F02480F591F6A1F7B1FECCF24
:101DD00080E00895CF939C01205E3245C1E020321F
:101DE000310538F4FB01C581C11103C08F710E9418
:101DF00045038C2FCF9108959C01FB0185818115AE
:101E000099F02B359CE7390769F02C359CE73907A9
:101E100021F02A353C4721F0089571DC80E00895D7
:101E200075DCFCCF75DCFACF81E008959C01FB01E5
:101E30008581811599F021309CE7390761F02330C5
:101E40009CE7390739F021153C4749F40E946403A7
:101E500080E008958CDC0E946803FACF81E0089549
:101E6000089580E090E00E9442249C0181E0233E9E
:101E70003E4F09F080E0089563EE7EEF80E090E051
:101E80000C9461246FEF7FEF80E090E00C9461246C
:101E9000CF93DF93EC0182E090E00E943A248883A4
:101EA000DF91CF910895FC01608182E090E00C9475
:101EB000472483E090E00E943A2490E00895682F40
:101EC00083E090E00C944724CF93DF93EC0184E00F
:101ED00090E00E94422488839983DF91CF910895F6
:101EE000FC016081718184E090E00C946124CF93C7
:101EF000DF93EC018CE090E00E943A248883DF912C
:101F0000CF910895FC0160818CE090E00C9447240F
:101F1000AB01BC018FE090E00C945924AB01BC01F3
:101F200083E190E00C945924682F8EE090E00C94AB
:101F300047240895FECF08950895FECF0895E82F11
:101F4000F0E0E755FD4F8081089508950895FECF94
:101F50000895A4E0B0E0EFEAFFE00C94E62367D137
:101F6000F82E8091B10290E087559D4FF114D9F180
:101F70008E010F5F1F4FF80124E011922A95E9F7B7
:101F8000B80170D18115B1F08091A00290E044E0D9
:101F900050E0B80187559D4F0E94242421E02093F2
:101FA0004702892B91F4F12CC8DF8F2D2496E5E0B0
:101FB0000C940224809147028115A9F3F80184E072
:101FC00011928A95E9F710924702E091A002F0E0A1
:101FD000E755FD4F89819A81AB81BC8180839183D4
:101FE000A283B383E1CF2091A00230E0BC01C901FC
:101FF00087559D4FC2D1ABDFD8CF0F931F93CF939F
:1020000022E031E061E0D90140E050E08D918F3F66
:1020100099F0E82FE295EF70F0E0C1A18F70062FE4
:1020200001C0000F8A95EAF7902F90959C2391A309
:1020300092A1802F892B82A34F5F5F4F45305105BE
:1020400029F72B5F3F4F81E026313807E1F6CF912A
:102050001F910F910895CF93AC0185E0689FD00147
:102060001124AE5FBE4F70E0C1E080E09D919F3FC4
:1020700079F0E92FE295EF70E05EF0E0208130E04A
:102080009F7002C0359527959A95E2F79C2F20FD09
:1020900090E0892B7F5FCC0F753041F7460F511DC3
:1020A000FA018083CF910895A4E1B0E0EAE5F0E180
:1020B0000C94E923B9D0811113C084E1E4E4F1E088
:1020C0009E012F5F3F4FD90101900D928A95E1F754
:1020D00084E1F901A2E0B1E001900D928A95E1F767
:1020E000A3D091E08927880F880F8093B10294E0F4
:1020F000981B9093A00281DFE9EAF2E088E0119258
:102100008A95E9F7E1EAF2E088E011928A95E9F729
:1021100045D010DF6496E2E00C940524A8E0B0E01E
:10212000E4E9F0E10C94E623FE013196DF0188E05A
:102130001D928A95E9F710E00E2FFF2E612F802F58
:102140009F2D89DF812F8F5F182F8430B9F748E0EA
:1021500050E0602F7F2D81EA92E00E94242441E02C
:10216000892B91F440E06091B10270E067557D4F9A
:1021700081EA92E014D0182FECDE912F982B892F52
:102180002896E5E00C94022488E0E02FFF2DA1EAD8
:10219000B2E001900D928A95E1F7E5CF0895EF92B4
:1021A000FF920F931F93CF93DF938C017B01C42F7A
:1021B000411579F081E080934A020E948B1B809345
:1021C00048029093490280E0CDB7DEB7E6E00C9478
:1021D0000124D0914A02D115B1F380914802909127
:1021E00049020E940A1B059770F344E050E0B801D1
:1021F000C7010E942424892B41F084E0F801D70113
:1022000001900D928A95E1F7CD2F10924A028C2F02
:10221000DBCFCF930E94B323C82F811102C00E944D
:10222000AF238C2FCF91089580914E020895809115
:102230004D020895FCCF0895ECDF80934D02FADF44
:1022400080934E02F4DF811140C00895F0DF8111C8
:1022500001C03EC0089581E090914F029A3008F08D
:1022600080E008950F931F93CF93DF93EC018B01D0
:1022700080914F028A3080F4B801CE017CD0811168
:1022800021C080914F028F3FB1F40E948B1B80933D
:102290004B0290934C0209C080914B0290914C02EA
:1022A0000E940A1B843F914038F780E0DF91CF9174
:1022B0001F910F9108958F5F80934F028A3028F706
:1022C00081E0F4CF10924F02FBCF0C94371C08959D
:1022D0000C943A1C0895CF92DF92FF920F931F93B4
:1022E000CF93DF936901E801082F880F110B411587
:1022F0005105B1F0F80133E0EE0FFF1F3A95E1F719
:10230000EA5EFE4F81819281805B9D4FE0812E2F9E
:1023100030E04E17510508F49A01A9010E943124BA
:10232000C8010E94181DF82E8115E1F02097D1F008
:10233000C80123E0880F991F2A95E1F7FC01EA5EA6
:10234000FE4F2381422F50E0C217D10508F4AE01A1
:102350008A5E9E4FFC0164817581605B7D4FC60182
:102360000E9431248F2DDF91CF911F910F91FF900B
:10237000DF90CF900895EDC0089500C10895A4E0C6
:10238000B0E0E5ECF1E10C94E72360916502709117
:10239000660280916702909168020E94131B11E00F
:1023A000643671058105910508F1F6DCDC01CB018D
:1023B0000296A11DB11D89839A83AB83BC8300E083
:1023C00010E0980144E050E0BE016F5F7F4F82E073
:1023D00082DF182F811551F00E94971B60936502D0
:1023E000709366028093670290936802812F24960F
:1023F000E4E00C940324A5E0B0E0E1E0F2E10C9409
:10240000E1235B01E090C401F090C50101E010E020
:10241000CE0105969C0140E050E0BA0180E05BDF10
:10242000182F811509F446C067018FEFC81AD80A22
:1024300060916102709162028091630290916402E6
:102440000E94131B643671058105910560F104E05B
:1024500010E09E012F5F3F4F40E050E0BA0181E065
:102460003ADF182F64E070E0C60163D29D819813B3
:102470002CC0111551F10E94971B6093610270935B
:102480006202809363029093640289819A81AB8196
:10249000BC8180935D0290935E02A0935F02B09333
:1024A000600281E013C064E070E0C60142D29D8109
:1024B0008913CDCFF70181819281A381B481898372
:1024C0009A83AB83BC831111E0CF80E040915D0221
:1024D00050915E0260915F0270916002F50140834D
:1024E0005183628373832596EAE00C94FD23A0E078
:1024F000B0E0EDE7F2E10C94E1237C016B015A01BD
:10250000AADE0AE010E0811102C001E010E0C1E0A3
:10251000D0E0B601C701F5010995811115C02196DA
:102520000C171D078CF0CC9F9001CD9F300D300D06
:10253000112480E090E045E34A95F1F70000019610
:1025400082179307C1F7E5CFCDB7DEB7EAE00C9469
:10255000FD230F931F93CF93DF93EC018B014BEF80
:1025600051E1C5DF811529F04FEB51E1B801CE01F2
:10257000BEDFDF91CF911F910F910895CF93DF932D
:10258000C091C401D091C501CE01019624E0FB01A8
:10259000DC0101900D922A95E1F764E070E0C9D169
:1025A00088838D819E81AF81B88540915902509179
:1025B0005A0260915B0270915C0284179507A6072E
:1025C000B70759F08093590290935A02A0935B0287
:1025D000B0935C02BC01CD01BFDBDF91CF910895C8
:1025E00052C908950E94251B0E94A81E18D90E9456
:1025F000C01E35D90E94C91E0E94CC1EF1DF0E9468
:10260000E21E17D9F9CF8093C6019093C7010895B0
:10261000FB012581211539F097FF05C09F77BC018B
:1026200080E090E018D181E008950F931F93CF933D
:10263000DF93EC018B01FB018581811581F00E9404
:10264000AF0A8272FE01E053FC47E830F10538F42E
:10265000ED57FB4D0C94D323811559F040D0B801B0
:10266000CE01D6DFDF91CF911F910F910895811593
:10267000A9F334D0F4CF80E026D0F1CF81E0FCCFB5
:1026800082E0FACF83E0F8CF84E0F6CF85E0F4CFA4
:102690009091B302923069F48A3048F4875F90E0F9
:1026A0006AE070E00E94C023875A0C946B04865045
:1026B000FCCF3CC50895FECF089583EB92E065D82A
:1026C0008091B302F8CFCF93C82F8093B30283EBEE
:1026D00092E05DD88C2FEFDFCF9108950895089593
:1026E000F2D58093B2029091B302913029F481FF28
:1026F00003C089E30E946B040E94AF0A8093B40276
:102700000E94C30A0E94D40A8091B3028230B9F0B9
:1027100030F481110FC082EE0E94E40304C08430C3
:1027200011F1853029F18FE39CE90197F1F700C0A1
:102730000000089588E193E00E948C02F4CF80911C
:10274000B20280FD03C083E50E946B0482EE0E940A
:10275000E4038FE39CE90197F1F700C0000087E5EF
:102760000E946B04E0CF86EE0E946B0488E1F8CFF4
:102770008BE191E00E948C0285E290E00E948C0245
:1027800088E290E0D9CF8091B3028230D1F030F46A
:1027900081110CC082EE0E94270404C08430D1F065
:1027A0008530D1F08091B4020C94C00A8CE20E9472
:1027B0006B048091B20281FFF5CF89E30E946B0424
:1027C000F1CF82EE0E9427048091B20280FDEACF11
:1027D00083E5F4CF88E2F2CF88E290E00E948C0299
:1027E000E1CFA0E0B0E0E7EFF3E10C94E1235B017F
:1027F0006C01D091B3028CE1E82EF12C07E010E0DF
:1028000021E0C501D6010E2C04C0B695A795979579
:1028100087950A94D2F7C82FCF70211531F0D430A4
:1028200041F4CA3030F080E033DF8C2F31DF20E01C
:1028300005C0C111FACF04301105BCF301501109D4
:1028400084E0E81AF1080F3F1007D9F6CDB7DEB7DC
:10285000EAE00C94FD23CF92DF92EF92FF926B019E
:102860007C0181E1E816F10438F40E2C0F2849F0C0
:102870008091B302823049F4FF90EF90DF90CF90C7
:1028800008952EDFB601C70121C02ADF8091B3026F
:102890008111F8CF81E0E81AF1088D2D9E2DAF2D22
:1028A000B0E0A69597958795A695979587959852A8
:1028B000AF4FBF4FBC01CD0194DF83E0D822E12CA4
:1028C000F12CB601C70174528F4F9F4F8ADF5BDF37
:1028D000D3CF0C94B70B0895CF93A6DC91E0892752
:1028E000C82FCC0FCC0F8C2F2ADB21E030E002C0A8
:1028F000220F331FCA95E2F790E02823392381E0A5
:10290000232B09F480E0CF91089508DC8FEF96E740
:1029100021E0815090402040E1F700C00000FEDB44
:10292000DBDF811511F0D5DF32C70895EECF0895B2
:102930000895FC01680F791F8FEF41E3E617F70751
:1029400009F408959191892728E030E0982F990F94
:1029500087FF06C0892F842721503040B9F7EECF7A
:10296000892FFACFCF93DF93EB0186319C4709F58E
:102970000E94AF0A9D81911599F08A7A91E08111A8
:1029800001C090E090936902811541F085E35AD52A
:102990000E943D0B80E0DF91CF91089589E2F7CF4F
:1029A00080916902811519F085E352D5F1CF89E252
:1029B000FCCF81E0F0CFCF93DF93EC01FB01858169
:1029C000811509F4CBC09E0130572332310508F040
:1029D000ABC08AE992E00E94C10BFE01E150F047D2
:1029E000E232F10520F4E557FB4D0C94D32380919E
:1029F0009A02816080939A0290C080919B028860C5
:102A000080939B028AC080919A028260F3CF80916A
:102A10009A028460EFCF80919A028860EBCF809118
:102A20009B028160EDCF80919B028260E9CF809113
:102A30009A028061DFCF80919A028062DBCF809121
:102A40009A028064D7CF0E948C0680919A02806897
:102A5000D1CF80919A028C60CDCF80919B02836010
:102A6000CFCF80919A028E7FC5CF80919B02877FC6
:102A7000C7CF80919A028D7FBDCF80919A028B7FC4
:102A8000B9CF80919A02877FB5CF80919B028E7FCC
:102A9000B7CF80919B028D7FB3CF80919A028F7EBA
:102AA000A9CF80919A028F7DA5CF80919A028F7BCA
:102AB000A1CF0E948C0680919A028F779BCF809144
:102AC0009A02837F97CF80919B028C7F99CF9091C0
:102AD0009A02892F8B7F92FF8460877F92FF8860A4
:102AE00089CF80919B02982F909590FB80F990FB65
:102AF00081F986CF90919A02892F8F7B96FF80640F
:102B000079CF0E948C0690919A02892F97FB87F9C2
:102B1000805870CF81E00E94C90B8AE992E00E9440
:102B2000C30B0E948C0680E0DF91CF91089580E076
:102B3000F2CF90919A02892F8F7E94FF80615ACFB5
:102B400090919A02892F8E7F90FF816053CF909150
:102B50009B02892F877F93FF886052CF81E0E4CF6B
:102B6000382F25EB3203C001112497FF04C0805891
:102B70009109892F089580589F4FFBCF8091700253
:102B800080FF0DC06091330170E0660F771F6038E1
:102B9000710588F56115710581F1862F089581FF12
:102BA00007C06091330184E0689FB0011124EFCF2A
:102BB00082FF04C06091330188E0F6CF90916F02EC
:102BC0009115B9F06091320180913301961728F088
:102BD00098E0899FB0011124DACF899FC0011124A8
:102BE00023E0880F991F2A95E1F770E00E94C02327
:102BF000CECF68E0D2CF8FE7089581E0089580912D
:102C0000700280FF0CC060912F0170E07595679590
:102C1000759567956115710541F1862F089581FFBE
:102C200006C060912F0170E075956795F3CF6091B4
:102C30002F0182FD0BC090916E029115A1F0609161
:102C40002E0180912F01961738F0682F70E06038C0
:102C5000710500F38FE70895899FC001112470E08A
:102C60000E94C023F4CF61E0D8CF81E00895E82F1F
:102C7000ED5CE33198F5F0E0E355FB4D0C94D32384
:102C80007DDF819580937402089578DFFBCF76DF36
:102C9000819580937302089571DFFBCFB0DF80933D
:102CA00075020895ACDF8195FACFA9DF81958093F5
:102CB00076020895A4DFFBCF815D990B21E001C06E
:102CC000220F8A95EAF780917202822B809372021A
:102CD00008958091700281608093700208958091C0
:102CE00070028260F9CF809170028460F5CF4091CC
:102CF00073028D3C59F48091740287FF0DC01092CD
:102D00007402411559F410926F0208C08E3C81F490
:102D10008091740218169CF3411581F08091750220
:102D200090917602892B09F056C010926E02089598
:102D30008F3C41F447FFF0CF1092730280917402F0
:102D40008115E0CF803D19F41416B4F3E5CF9091CE
:102D50007502893D29F41916FCF610927502DCCF34
:102D60008A3D19F497FFD8CFF8CF909176028B3D2A
:102D700029F497FFD1CF10927602CECF8C3D19F473
:102D80001916CCF3C9CF982F915D983078F4815DF6
:102D9000990B21E001C0220F8A95EAF7822F8095D6
:102DA00090917202892380937202B6CF8D3D31F4E7
:102DB000809170028E7F80937002AECF8E3D21F4A1
:102DC000809170028D7FF7CF8F3D09F0A5CF809164
:102DD00070028B7FF0CF08959ED49C019091730276
:102DE00080917402982B21F020936C0230936D0235
:102DF0009091750280917602982B21F020936A02BF
:102E000030936B0281E792E06DC2E1E7F2E086E089
:102E100011928A95E9F710926F0210926E02109249
:102E200070020895FC01828181110EC0838181119D
:102E30000BC08481811108C091E08581811101C09E
:102E400090E0892F8170089581E0FCCFA6E0B0E08A
:102E5000ECE2F7E10C94E62386E0E1E7F2E09E0184
:102E60002F5F3F4FD90101900D928A95E1F71092A3
:102E700073021092740210927502109276028B8186
:102E80009C81892B022FF32E811581F080916C0299
:102E900090916D02BFD3AC0190916F029115A1F199
:102EA000809134018417150608F43BC08D819E8102
:102EB000892B89F080916A0290916B02ABD3AC01AF
:102EC00090916E02911509F45AC0809130018417D7
:102ED000150608F462C0602F7F2D81E792E0C8D20A
:102EE000811104C081E792E09DDF811175DF86E0EA
:102EF000E02FFF2DA1E7B2E001900D928A95E1F756
:102F00002696E5E00C940224209135018AE0289F62
:102F1000900111242417350748F69F5F90936F02A4
:102F200002C09F3FD1F71B81111551F027DE91E0C0
:102F300011160CF09FEF899F802D1124809373024E
:102F40001C81111551F01ADE91E011160CF09FEF63
:102F5000899F802D112480937402809173028115C2
:102F600009F4A4CF10917402111509F49FCFF8DD74
:102F700080937302812FF4DD8093740297CF2091A8
:102F800031018AE0289F900111242417350708F0A9
:102F9000A2CF9F5F90936E0202C09F3FD1F71D8129
:102FA000111551F02CDE91E011160CF09FEF899F66
:102FB000802D1124809375028E81182F811551F078
:102FC0001EDE91E011160CF09FEF899F802D1124D9
:102FD0008093760280917502811509F47CCF9091DF
:102FE0007602192F911509F476CFBADD8093750218
:102FF000812FB6DD809376026ECFA0E0B0E0E3E0F3
:10300000F8E10C94E223E82FF0E0E451FE4F9491B4
:10301000B92E282F26952695269530E0F901E457FC
:10302000FD4FE4908770F12C082E02C0F594E794D0
:103030000A94E2F7F901E458FD4FC490D12C082E10
:1030400002C0D594C7940A94E2F724593D4FF90180
:10305000049110E002C0159507958A95E2F7C62FF6
:10306000D0E0E0FC25C0C0FE06C086EE0E94E4036E
:10307000CE01009759F5BE018B2D0E945504CE015B
:10308000009761F5C0FC32C0E0FE06C081EE0E94F0
:103090002704CE010097C1F500FF05C08CE20E9415
:1030A0006B042097C9F5CDB7DEB7E9E00C94FE2399
:1030B00081EE0E94E403CE010097A9F2EFE9FFE060
:1030C0003197F1F700C000000197F6CFEFE9FFE07C
:1030D0003197F1F700C000000197CBCFEFE9FFE097
:1030E0003197F1F700C000000197CACF86EE0E9429
:1030F0002704CE01009741F2EFE9FFE03197F1F7A5
:1031000000C000000197F6CFEFE9FFE03197F1F73B
:1031100000C000000197BECF8FE99FE00197F1F753
:1031200000C000002197BDCF60E067CF982F9F704F
:103130009A50963010F0805DF7CF895AFDCF0F93EB
:103140001F93CF93DF93C42FD22FFC01858181156C
:10315000C9F040937902DFD280937702909378028E
:103160008C2F805E883048F481E0C1FD84E0C0FD92
:10317000880FC2FD82950E947204DF91CF911F914A
:103180000F91089510917902141333C08091770242
:10319000909178023FD2883C910558F5CD2FC05EC2
:1031A0001D17C1F0812F805E883048F481E011FD49
:1031B00084E010FD880F12FD82950E947704C830CC
:1031C00048F481E0D1FD84E0D0FD880FD2FD8295E6
:1031D0000E947204802F0E946B0481E0D1FD84E084
:1031E000D0FD880FD2FD8295C83038F60E94770452
:1031F000C4CF8C2F805E883008F0BFCF81E0C1FD46
:1032000084E0C0FD880FC2FD8295F0CF0F93FC01D2
:10321000CB01E851FC47E730F10588F5E054FB4D60
:103220000C94D32306E221EE41EE6AE17CE787DFCE
:1032300080E00F91089507E225EE45EE6BE17CE713
:10324000F6CF06E221EE40EE68E17CE7F0CF07E240
:1032500025EE44EE69E17CE7EACF06E221EE42EE9C
:103260006CE17CE7E4CF07E225EE46EE6DE17CE71A
:10327000DECF08E221E045EE6EE17CE7D8CFFB012E
:10328000858181111092790281E0D3CF80937F02F2
:10329000909380020895089508950E941711811156
:1032A00003C080917A020895E0917F02F09180023C
:1032B000309739F00190F081E02D309711F00995A9
:1032C000089580E00895E9CF0895E0917F02F0919C
:1032D0008002309731F00280F381E02D309709F0C1
:1032E00009950895E0917F02F0918002309759F09E
:1032F00026813781232B39F022E0DC012C930680D4
:10330000F781E02D09950895A3E0B0E0EAE8F9E13E
:103310000C94E92320917D0230917E022817390711
:10332000B1F080937D0290937E02E0917F02F09154
:103330008002309761F00084F185E02D309739F0FC
:1033400023E029838A839B83CE01019609952396E6
:10335000E2E00C940524A3E0B0E0E1EBF9E10C9489
:10336000E92320917B0230917C0228173907B1F0C4
:1033700080937B0290937C02E0917F02F091800227
:10338000309761F00084F185E02D309739F024E02A
:1033900029838A839B83CE01019609952396E2E0D7
:1033A0000C94052440910001509101019A012E5F77
:1033B0003F4F485F5F4F80E0F90190812F5F3F4FA3
:1033C00091118F5F42175307B9F70895811591F056
:1033D0002091000130910101F9013296285F3F4FA1
:1033E0009081981731F03196E217F307C9F780E022
:1033F000089581E008959C01FC01329680E09FEFE2
:103400004081461759F031969F3F19F4411101C090
:10341000982F8F5F8630A1F79F3F09F40895290FF9
:10342000311D97FD3A95F90162830895FC013296AA
:1034300008962191261302C0DF011E92E817F907B2
:10344000C1F70895682F8091000190910101D3CFB9
:10345000682F8091000190910101E8CFE091000177
:10346000F0910101329686E011928A95E9F708956C
:10347000DC01FB0111969C9111978181981322C068
:1034800012968C911297811519F0928189131AC0A6
:1034900013968C911397811519F09381891312C09B
:1034A00015968C911597811519F0958189130AC08D
:1034B00014969C91911521F081E02481291303C079
:1034C00080E001C081E0817008950895FECF0895E5
:1034D0008F5F80933901609136017091370180913F
:1034E000380190913901F2CF83E0809339016091E6
:1034F0003601709137018091380190913901E6CF02
:10350000E7CF089581E08093390160913601709191
:1035100037018091380190913901D8CFF3CF0895C8
:1035200091E0811101C090E09093380160913601E3
:10353000709137018091380190913901C7CF809106
:1035400038010895809337016091360170913701F9
:103550008091380190913901B9CF80913701089558
:103560008093360160913601709137018091380166
:1035700090913901ABCF8091360108950895089557
:10358000FECF089508950895F9CF08950F931F93DE
:10359000CF93DF93F7DF0E948E10F5DF01E812E092
:1035A000C0E0D0E08C2F0E949F0FF80181938F0123
:1035B00091E0811101C090E0D92BCF5FC83091F725
:1035C0008D2FDF91CF911F910F910895E82FF0E09B
:1035D000EF57FD4F808190E021E030E002C0220FE4
:1035E000331F6A95E2F72823392381E0232B09F45E
:1035F00080E0089541110DC0E82FF0E0EF57FD4F36
:1036000021E001C0220F6A95EAF7209580812823E6
:1036100020830895CF93DF93EC017DD08C1B9D0B0D
:10362000DF91CF910895EF92FF920F931F937B014B
:103630008C017DD09701A801621B730B840B950B45
:103640001F910F91FF90EF90089585B7806885BF17
:1036500085B7806885BF08951F921FB61F921124F9
:103660008F939F93AF93BF9380918902811113C071
:103670008091B5029091B602A091B702B091B802C4
:103680004196A11DB11D8093B5029093B602A093FF
:10369000B702B093B802BF91AF919F918F911F90E5
:1036A0001FBE1F9018958091BD02843031F10E9499
:1036B0006C031092890288E190E020E40FB6F89440
:1036C000A895809360000FBE2093600083B7817F30
:1036D000846083BF83B7816083BF7894889583B704
:1036E0008E7F83BF0FB6F894A895809160008861A3
:1036F00080936000109260000FBE08950E948C06B7
:103700000C94700382E084BD93E095BD9AEF97BD61
:1037100080936E0008952FB7F8948091B502909130
:10372000B602A091B702B091B8022FBF08952FB78B
:10373000F8946091B5027091B6028091B7029091B1
:10374000B8022FBF089578941F921FB61F921124BC
:103750008F939F93AF93BF938091B5029091B602E0
:10376000A091B702B091B8020196A11DB11D80933E
:10377000B5029093B602A093B702B093B802BF917E
:10378000AF919F918F911F901FBE1F90189587E753
:1037900097E7809300089093010888E19AE00FB6BC
:1037A000F894A895809360000FBE90936000FFCFBF
:1037B00088E19AE00FB6F894A895809360000FBE58
:1037C00090936000FFCF8EE14A9B02C08150E1F7E9
:1037D0004A9BFECF08955A9880E28A95F1F75A9A4B
:1037E0000895FC018BE08A95F1F728E080E090E0F5
:1037F00031E040E14A95F1F7880F4A9B02C08160B1
:10380000932742E04A95F1F7000040E14A95F1F72D
:10381000215079F720E12A95F1F729B132E03A9564
:10382000F1F7000030E13A95F1F731E022FD9327FE
:103830002081920F90830895A1E0B0E0E1E2FCE1E5
:10384000C4C719828C017C01E60EF11CBCDFCE01DD
:103850000196C7DFF80181938F01EE15FF05B1F7DF
:1038600081E09981911180E02196E6E0CAC7529AE1
:103870005A9A089552985A9AEA9AE9E6F0E08081B5
:103880008F7C808308956150770B91E001C0990F80
:103890006A95EAF7692F90E021E0611108C091155F
:1038A00091F05A9A80E28A95F1F75A980895362F46
:1038B000382339F05A9A922730E23A95F1F7669513
:1038C000ECCF5A98F9CF5A98EDCFFF920F931F93F0
:1038D000CF93DF93EC018C01060F111D8991F82E17
:1038E0007ADF68E08F2DCFDFC017D107B9F7CDB7EA
:1038F000DEB7E5E087C71F920F920FB60F92112433
:103900000F931F932F933F934F935F936F937F93E7
:103910008F939F93AF93BF93EF93FF93CF93DF93D7
:103920000F92CDB7DEB719824EDFCE01019659DF77
:10393000082F069506950695282F22952570902F1D
:103940009570920F292F237096959695920F982730
:1039500097708981892B09F055C0043008F052C056
:1039600080E18A95F1F75A9A529A82E08A95F1F7A6
:1039700000C05A9888E0089F80011124D801AA5EEF
:10398000BE4F1696ED91FD911897309791F060918A
:10399000C4017091C50114962D913D91260F371FDA
:1039A00015978D919D91680F791F4C9113978C916C
:1039B0000995F801EA5EFE4F6381611549F0209197
:1039C000C4013091C50184819581820F931F7DDFF1
:1039D00002DF80E18A95F1F75A9852985A9A80E16D
:1039E0008A95F1F7F801EA5EFE4F6081611549F0B2
:1039F0002091C4013091C50181819281820F931F72
:103A00001BDFE1DE0F90DF91CF91FF91EF91BF912E
:103A1000AF919F918F917F916F915F914F913F9166
:103A20002F911F910F910F900FBE0F901F9018951F
:103A30000F931F93CF93DF93EC0104970CF05EC0BC
:103A4000F894529A5A9885E08A95F1F700009C2FD5
:103A5000969595708C2F8570980F892F8370969509
:103A60009695292F93E0CC0FDD1F9A95E1F7280F4B
:103A7000822F8C2B082FAFDE00C068E0802F03DF81
:103A800080E18A95F1F752985A9A4A9B30C087E0B4
:103A900090E04A992EC0FE01EA5EFE4F63816115F7
:103AA00059F02091C4013091C50184819581820F24
:103AB000931FC2DE8115F9F086DE80E28A95F1F768
:103AC0005A98529A80E18A95F1F7CA5EDE4F688172
:103AD000611549F02091C4013091C50189819A8115
:103AE000820F931FF2DE77DE789481E008C000C079
:103AF000CCCF019749F4529A5A9A789480E0DF919A
:103B0000CF911F910F91089500C0C3CF08959B01DD
:103B1000BA019091BD029430D9F48F708093E9007E
:103B20009FEF8091E80085FD06C085ED8A95F1F74D
:103B300000009150B1F78091E80085FF09C040E096
:103B400050E0C901B1D18091E8008E778093E80000
:103B5000089543E050E0BC0182E0D9CF46E050E058
:103B6000BC0182E0D4CFCF93DF93EC01E8DC48E0E6
:103B700050E0BE0181E0CBDF88E0FE01AAE8B2E0C0
:103B800001900D928A95E1F7DF91CF910895809190
:103B9000BC02811107C016D366D38091E200846015
:103BA0008093E20008951092BC020895ABDC81E09E
:103BB000B7CC6091B90281E0611101C080E094CC82
:103BC0009091BD0281E0943009F080E06091B902EB
:103BD00097CC42E061EC81E071D242E261EC82E09C
:103BE0006DD29091BD0281E0943009F080E0609147
:103BF000B9026ECC8091BF02893081F148F48230E5
:103C000009F496C0833009F457C0813041F008951B
:103C10008A3009F480C08B3009F468C0089580911F
:103C2000BE02813A09F047C08091E800877F809307
:103C3000E8008091C2029091C302892B59F060E0A4
:103C400080E090E070E07DD18091E8008B778093F8
:103C5000E800089568E08AE892E0F4CF8091BE021F
:103C6000813249F58091C2029091C302029718F502
:103C70008091E800877F8093E8008091E80082FFD0
:103C800016C02091F3008091F200922F029731F438
:103C90008091F100813011F0863019F48091F100AB
:103CA00051DC8091E8008B778093E8003BC28091E3
:103CB000BD028111E2CF08958091BE02813AD9F709
:103CC0008091C2029091C302892BA9F78091E800EC
:103CD000877F8093E8008091E80080FFFCCF2FDC95
:103CE0008093F1008091E8008E77DECF8091BE0254
:103CF000813209F78091C2029091C302892BD9F6D3
:103D00008091E800877F8093E8000CD28091C00208
:103D100007DC0C948C068091BE02813261F68091A2
:103D2000E800877F8093E800FDD18091C10218CC24
:103D30008091BE02813A09F0BECF8091E800877F72
:103D40008093E8008091E80080FFFCCF14DCC8CFAE
:103D500084B7877F84BF0FB6F894A89580916000E0
:103D6000886180936000109260000FBE80E890E050
:103D70000FB6F89480936100909361000FBECECB94
:103D800021D271D2E2EEF0E0808184608083789469
:103D9000CDC48AE391E07ACA8091BD02853029F4CE
:103DA0008091BD02853011F0A9CC08957CDCEEDB5A
:103DB0008115B1F38091BB02811591F35FD00E9410
:103DC0008C06EECF08959A014091C4025091C5022D
:103DD00000C0492F50E043305105C9F070F4413024
:103DE0005105E9F14230510571F48BE390E046EC66
:103DF00052E0F90140835183089541325105E9F0C1
:103E00004232510519F180E090E040E0F2CF482FB6
:103E100050E0813061F04230510561F0E2ECF2E0B7
:103E20004115510581F7849190E0AF01E2CFE8EBB5
:103E3000F2E0F9CFECE9F2E0F6CF61307105A0F0E5
:103E400011F789E090E041EF52E0D3CF6130710586
:103E500080F0C9F68BE790E043E153E0CACF82E1FE
:103E600090E041E053E0C5CF89E090E048ED52E0BA
:103E7000C0CF84E490E04EE853E0BBCF80E189BD41
:103E800082E189BD09B400FEFDCF8091D8008F7D0D
:103E90008093D8008091E00082608093E000809160
:103EA000E00081FDFCCF0895AF92BF92CF92DF92E8
:103EB000FF920F931F93CF93DF936C01EB018A0165
:103EC00050D1F82E811123C00115110539F0F801E8
:103ED00080819181C81BD90BC80ED91EA12CB12C91
:103EE0002097A9F08091E80085FD21C08091E8002D
:103EF0008E778093E80001151105A1F0F80180810B
:103F000091818A0D9B1D8083918385E0F82E8F2DF2
:103F1000DF91CF911F910F91FF90DF90CF90BF90D5
:103F2000AF9008951ED18115E9F2F82EF0CFF60179
:103F300081916F018093F10021978FEFA81AB80A41
:103F4000CFCFFC012091C4023091C502261737075C
:103F500020F06115710569F09B0190E02115310594
:103F600071F491110CC08091E80082FF38C080E0AC
:103F700008959091E8009E779093E800EDCF8091AE
:103F8000BD028115C1F18530C1F18091E80083FD4A
:103F900030C08091E80082FDE6CF8091E80080FF8C
:103FA000DDCF8091F3004091F200582F21153105AB
:103FB00019F04830510558F091E04830510509F0AA
:103FC00090E04091E8004E774093E800C7CF8191A0
:103FD0008093F100215031094F5F5F4FE7CF80910F
:103FE000BD02811541F0853041F08091E80083FFEA
:103FF000BACF81E0089582E0089583E00895FC013E
:104000002091C4023091C5022617370720F06115B0
:10401000710569F09B0190E02115310571F4911152
:104020000CC08091E80082FF39C080E00895809143
:10403000E8008E778093E800EDCF8091BD02811576
:10404000C9F18530C9F18091E80083FD31C08091CC
:10405000E80082FDE6CF8091E80080FFDDCF80910F
:10406000F3004091F200582F2115310519F0483026
:10407000510558F091E04830510509F090E08091E9
:10408000E8008E778093E800C7CF84918093F10099
:104090003196215031094F5F5F4FE6CF8091BD02CD
:1040A000811541F0853041F08091E80083FFB9CF60
:1040B00081E0089582E0089583E00895982F973075
:1040C00028F08F708093E90081E008959093E900D3
:1040D000242F762F50E0981731F07091EC0020914A
:1040E000ED005091F00021FD02C09F5FE8CF3091BC
:1040F000EB003E7F3093EB003091ED003D7F30933D
:10410000ED003091EB0031603093EB007093EC00E8
:104110002093ED005093F0002091EE0027FDE5CFB5
:1041200080E008958091BE0287FF13C08091E8006F
:1041300082FF06C08091E8008B778093E8000895A5
:104140008091BD028111F2CF08958091BD02811549
:10415000D9F38091E80080FFF8CF8091E8008E7756
:10416000ECCF2091E4003091E50095E6A901209183
:10417000EC00822F817020FF06C08091E80080FF54
:1041800006C080E008952091E80022FD1AC08091C9
:10419000BD02811589F0853089F08091EB0085FDA5
:1041A0000FC02091E4003091E50042175307F9F267
:1041B0009150E1F684E0089582E0089583E0089547
:1041C00081E008955FD066D0E0EEF0E0808181600C
:1041D0008083E8ED80818F77808319BCA7EDB0E004
:1041E0008C918E7F8C9380818F7E80831092BC0215
:1041F0000895CF93DF9346D04DD0C8EDD0E08881AD
:104200008F77888388818068888388818F7D888381
:1042100019BC1092BD021092B9021092BB0210920A
:10422000BA02E0EEF0E080818B7F8083888181603C
:10423000888342E060E080E041DFE1EEF0E08081F1
:104240008E7F8083E2EE80818160808380818860C0
:104250008083E0EE80818E7F808388818061888387
:10426000DF91CF910895E8EDF0E080818F7E80832B
:10427000E7ED80818160808384E082BF81E080936C
:10428000BC02B7CFE8EDF0E080818E7F8083109292
:10429000E20008951092DA001092E10008951F9252
:1042A0000F920FB60F9211242F933F934F935F936A
:1042B0006F937F938F939F93AF93BF93EF93FF93EE
:1042C0008091E10082FF0AC08091E20082FF06C077
:1042D0008091E1008B7F8093E10027D28091DA000A
:1042E00080FF18C08091D80080FF14C08091DA0050
:1042F0008E7F8093DA008091D90080FF8FC080E1AB
:1043000089BD82E189BD09B400FEFDCF81E08093C3
:10431000BD023DDC8091E10080FF18C08091E20089
:1043200080FF14C08091E2008E7F8093E200809134
:10433000E20080618093E2008091D80080628093E7
:10434000D80019BC85E08093BD0233DC8091E10088
:1043500084FF28C08091E20084FF24C080E189BDF1
:1043600082E189BD09B400FEFDCF8091D8008F7D28
:104370008093D8008091E1008F7E8093E10080914E
:10438000E2008F7E8093E2008091E2008160809362
:10439000E2008091B902811509F445C084E0809360
:1043A000BD020EDC8091E10083FF27C08091E20016
:1043B00083FF23C08091E100877F8093E10082E04A
:1043C0008093BD021092B9028091E1008E7F8093AC
:1043D000E1008091E2008E7F8093E2008091E20014
:1043E00080618093E20042E060E080E067DE8091DF
:1043F000F00088608093F000D9DBFF91EF91BF91CE
:10440000AF919F918F917F916F915F914F913F916C
:104410002F910F900FBE0F901F90189519BC1092FE
:10442000BD02C1DB77CF8091E30087FF02C083E04C
:10443000B6CF81E0B4CF1F920F920FB60F92112426
:104440001F932F933F934F935F936F937F938F931C
:104450009F93AF93BF93CF93DF93EF93FF93E9EED7
:10446000F0E080811091EC008F7010FB112717F99C
:10447000182B1082C0EFD0E08881877F88837894E2
:104480001CD0E9EEF0E010828881886088831F707C
:104490001083FF91EF91DF91CF91BF91AF919F91E9
:1044A0008F917F916F915F914F913F912F911F91CC
:1044B0000F900FBE0F901F901895AAE2B0E0E2E6B1
:1044C000F2E286C18EEB92E0FC0101962091F100B0
:1044D000208322E0863C9207B9F78CDB8091E800CC
:1044E00083FF37C08091BE029091BF029A3088F559
:1044F000E92FF0E0E953FB4D56C1803889F082384E
:1045000041F58091C2028F70873018F58093E900E1
:104510008091EB0085FB882780F91092E90006C0A6
:104520008091BB02880F9091BA02892B9091E8008C
:10453000977F9093E8008093F1001092F1008091B2
:10454000E8008E7722C0811115C08091C0028130B1
:1045500001F18091E80083FF0AC08091E800877F25
:104560008093E8008091EB0080628093EB00AA9634
:10457000E3E04AC1823069F78091C002811579F089
:104580001092E9008091E800877F8093E800CADDFF
:10459000E0CF933009F080E08093BB02F1CF8091AF
:1045A000C2028F70282F2150263098F68093E900A0
:1045B0002091EB0020FFE4CF933031F48091EB00A9
:1045C00080628093EB00DCCF9091EB009061909340
:1045D000EB0021E001C0220F8A95EAF72093EA0060
:1045E0001092EA008091EB008860EBCF8111B1CF8F
:1045F0008091C0028F77182F8091E3008078812B03
:104600008093E3008091E800877F8093E8008ADD53
:104610008091E80080FFFCCF8091E3008068809368
:10462000E30083E0111101C082E08093BD0291CFCD
:104630008058823008F08DCF8091C0029091C102E5
:104640008C3D23E0920789F583E08A838AE289839F
:104650004FB7F894DE01139620E03EE051E2E32FDD
:10466000F0E050935700849120FF03C082958F7033
:104670003F5F8F708A30B8F0895C8D931D922F5FF9
:10468000243169F74FBF8091E800877F8093E8006D
:104690006AE270E0CE01019654DC8091E8008B77ED
:1046A0008093E80056CF805DE8CF6091C2027091A0
:1046B000C302AE014F5F5F4F86DBBC01892B09F45B
:1046C00048CF9091E800977F9093E80089819A8184
:1046D00096DCE3CF803809F03CCF8091E800877FFB
:1046E0008093E8008091B9028093F10028CF811176
:1046F00030CF9091C002923008F02BCF8091E8002B
:10470000877F8093E8009093B9020CDD8091B90215
:10471000811529F084E08093BD025BDA1ACF809185
:10472000E30087FDF7CF81E0F6CF0895CF93809126
:10473000BD02811591F08091E900C091EC008F706D
:10474000C0FBCC27C7F9C82B1092E9008091E80084
:1047500083FDB3DECF70C093E900CF91089532DDC1
:104760001092BD020895E8EDF0E0808180618083C1
:104770008AE18A95F1F700C08091D900817008958F
:1047800097FB072E16F4009406D077FD08D048D08A
:1047900007FC05D03EF4909581959F4F0895709544
:1047A00061957F4F0895EE0FFF1F0590F491E02D66
:1047B00009942F923F924F925F926F927F928F92C5
:1047C0009F92AF92BF92CF92DF92EF92FF920F93A0
:1047D0001F93CF93DF93CDB7DEB7CA1BDB0B0FB6AA
:1047E000F894DEBF0FBECDBF09942A883988488867
:1047F0005F846E847D848C849B84AA84B984C884FD
:10480000DF80EE80FD800C811B81AA81B981CE0FF3
:10481000D11D0FB6F894DEBF0FBECDBFED010895D8
:10482000AA1BBB1B51E107C0AA1FBB1FA617B707D6
:1048300010F0A61BB70B881F991F5A95A9F78095F2
:104840009095BC01CD010895FB01DC0104C08D9160
:104850000190801921F441505040C8F7881B990BF2
:104860000895FB01DC0102C001900D9241505040BF
:10487000D8F70895F999FECF92BD81BDF89A99278E
:1048800080B50895A8E1B0E042E050E020C0262FB6
:10489000F999FECF92BD81BDF89A019700B4021636
:1048A00039F01FBA20BD0FB6F894FA9AF99A0FBEE4
:1048B00008950396272FECDFEADF252FE9DF242F69
:1048C000E7CF0196272FE4DFE2CFDC01CB01FC012B
:1048D000F999FECF06C0F2BDE1BDF89A319600B459
:1048E0000D9241505040B8F70895F894FFCFB704A7
:1048F000B704EE04EE0445056105DF04DF04650539
:10490000D705E405E4052C1337133B133E1340137E
:104910004213441346133115A01539150315071515
:104920003D150B1541154D15171599151B155115ED
:104930001F1555157A1523155915811529155F155C
:1049400067150F154515131549152D1563157115A7
:104950008A159715FD143515A715401645164716E7
:104960004C165C165C165C165C165C165C165C16C7
:104970005C164E16521655165A1669166F16731691
:104980002119271912191B192D19331939197D22CB
:10499000A322A922A322A922F6221823A9226A234C
:0249A00077237B
:1049A2003202C6F7F6F5F4313332369391909466BB
:1049B200973435FFFFFF00000001000000000000F7
:1049C20000040100000004050000000000002808A7
:1049D20050011E0A140100000100AD1AB31D861D0C
:1049E200AE1DA91DF4F5F6F7C6933632333197663C
:1049F2009490913534FFFFFFE200E900EA00B50030
:104A0200B600B700CD008301CC008A019201940167
:104A12002102230224022502260227022A02B300CF
:104A2200B4006F0070009F01CB019F02A002E20060
:104A3200E900EA00B500B600B700CD008301CC0062
:104A42008A019201940121022302240225022602F4
:104A520027022A02B300B4006F0070009F01CB014D
:064A62009F02A0025002B9
:00000001FF
